{
  "_format": "hh-sol-artifact-1",
  "contractName": "SimpleVoting",
  "sourceName": "contracts/SimpleVoting.sol",
  "abi": [
    {
      "inputs": [],
      "stateMutability": "nonpayable",
      "type": "constructor"
    },
    {
      "anonymous": false,
      "inputs": [
        {
          "indexed": true,
          "internalType": "address",
          "name": "voter",
          "type": "address"
        },
        {
          "indexed": false,
          "internalType": "uint8",
          "name": "option",
          "type": "uint8"
        }
      ],
      "name": "VoteCast",
      "type": "event"
    },
    {
      "anonymous": false,
      "inputs": [],
      "name": "VotingClosed",
      "type": "event"
    },
    {
      "anonymous": false,
      "inputs": [],
      "name": "VotingOpened",
      "type": "event"
    },
    {
      "inputs": [
        {
          "internalType": "uint8",
          "name": "vote",
          "type": "uint8"
        }
      ],
      "name": "castVote",
      "outputs": [],
      "stateMutability": "nonpayable",
      "type": "function"
    },
    {
      "inputs": [],
      "name": "closeVoting",
      "outputs": [],
      "stateMutability": "nonpayable",
      "type": "function"
    },
    {
      "inputs": [],
      "name": "getOption1Votes",
      "outputs": [
        {
          "internalType": "uint32",
          "name": "",
          "type": "uint32"
        }
      ],
      "stateMutability": "view",
      "type": "function"
    },
    {
      "inputs": [],
      "name": "getOption2Votes",
      "outputs": [
        {
          "internalType": "uint32",
          "name": "",
          "type": "uint32"
        }
      ],
      "stateMutability": "view",
      "type": "function"
    },
    {
      "inputs": [],
      "name": "getOption3Votes",
      "outputs": [
        {
          "internalType": "uint32",
          "name": "",
          "type": "uint32"
        }
      ],
      "stateMutability": "view",
      "type": "function"
    },
    {
      "inputs": [],
      "name": "getTotalVotes",
      "outputs": [
        {
          "internalType": "uint32",
          "name": "",
          "type": "uint32"
        }
      ],
      "stateMutability": "view",
      "type": "function"
    },
    {
      "inputs": [],
      "name": "isVotingOpen",
      "outputs": [
        {
          "internalType": "bool",
          "name": "",
          "type": "bool"
        }
      ],
      "stateMutability": "view",
      "type": "function"
    },
    {
      "inputs": [],
      "name": "openVoting",
      "outputs": [],
      "stateMutability": "nonpayable",
      "type": "function"
    },
    {
      "inputs": [],
      "name": "owner",
      "outputs": [
        {
          "internalType": "address",
          "name": "",
          "type": "address"
        }
      ],
      "stateMutability": "view",
      "type": "function"
    },
    {
      "inputs": [],
      "name": "votingOpen",
      "outputs": [
        {
          "internalType": "bool",
          "name": "",
          "type": "bool"
        }
      ],
      "stateMutability": "view",
      "type": "function"
    }
  ],
  "bytecode": "0x60806040526000805460ff60801b1916600160801b17905534801561002357600080fd5b50600180546001600160a01b0319163317905561051c806100456000396000f3fe608060405234801561001057600080fd5b506004361061009e5760003560e01c80639a0e7d66116100665780639a0e7d6614610132578063a95824b414610147578063affc06701461016b578063c631b29214610173578063fa7f1bae1461017b57600080fd5b806304cc99a0146100a357806363499ef5146100ce57806373e35263146100e45780638da5cb5b146100f257806394a135411461011d575b600080fd5b600054600160401b900463ffffffff165b60405163ffffffff90911681526020015b60405180910390f35b600054640100000000900463ffffffff166100b4565b60005463ffffffff166100b4565b600154610105906001600160a01b031681565b6040516001600160a01b0390911681526020016100c5565b61013061012b36600461048b565b61018d565b005b600054600160601b900463ffffffff166100b4565b60005461015b90600160801b900460ff1681565b60405190151581526020016100c5565b610130610365565b6101306103fb565b600054600160801b900460ff1661015b565b600054600160801b900460ff166101de5760405162461bcd60e51b815260206004820152601060248201526f159bdd1a5b99c81a5cc818db1bdcd95960821b60448201526064015b60405180910390fd5b60018160ff16101580156101f6575060038160ff1611155b6102385760405162461bcd60e51b815260206004820152601360248201527224b73b30b634b2103b37ba329037b83a34b7b760691b60448201526064016101d5565b8060ff1660010361027c576000805463ffffffff169080610258836104b5565b91906101000a81548163ffffffff021916908363ffffffff160217905550506102ed565b8060ff166002036102a55760008054640100000000900463ffffffff16906004610258836104b5565b8060ff166003036102ed5760008054600160401b900463ffffffff169060086102cd836104b5565b91906101000a81548163ffffffff021916908363ffffffff160217905550505b60008054600160601b900463ffffffff1690600c61030a836104b5565b825463ffffffff9182166101009390930a92830291909202199091161790555060405160ff8216815233907fefffa0c001f10a86d936643c098510eba656ffab1d0c5165822b79d4c895e88f9060200160405180910390a250565b6001546001600160a01b031633146103bf5760405162461bcd60e51b815260206004820152601a60248201527f4f6e6c79206f776e65722063616e206f70656e20766f74696e6700000000000060448201526064016101d5565b6000805460ff60801b1916600160801b1781556040517fa737faa632a36c00ccb4220893426e922f9442f1cab67acd8301f88a596d4abc9190a1565b6001546001600160a01b031633146104555760405162461bcd60e51b815260206004820152601b60248201527f4f6e6c79206f776e65722063616e20636c6f736520766f74696e67000000000060448201526064016101d5565b6000805460ff60801b191681556040517f66b6cb4a09abc3bf1cacc3c67420258856ffdad0deba9078cbd1658957b502189190a1565b60006020828403121561049d57600080fd5b813560ff811681146104ae57600080fd5b9392505050565b600063ffffffff8083168181036104dc57634e487b7160e01b600052601160045260246000fd5b600101939250505056fea26469706673582212207a07462ee02f853118be193d128c326390db46a57754f7410352b1234ee9a84164736f6c63430008180033",
  "linkReferences": {},
  "deployedLinkReferences": {}
}